10002949MELIH          CALMAZ         19960403000000000000000
10002840MELIH          CALMAZ         19960403000000000000000
10002978MELIH          CALMAZ         19960403000000000000000
